:1000000012C021C020C02FC01EC01DC01CC01BC0FC
:100010001AC019C018C017C016C015C014C013C02C
:1000200012C011C010C011241FBECFE5D4E0DEBF46
:10003000CDBF10E0A0E6B0E001C01D92A436B1072C
:10004000E1F739D07AC0DCCF90BD89B988E18AB9AF
:1000500086E880BD08955D9BFECF8CB908955F9BB7
:10006000FECF8CB108951F920F920FB60F921124FC
:100070008F939F939091600080916200981710F089
:10008000A89A01C0A89880916300981710F0A99AC7
:1000900001C0A99880916100981710F0AA9A01C038
:1000A000AA989F5F909360009F918F910F900FBED1
:1000B0000F901F90189510BC83E389B988E18AB925
:1000C00086E880BDBA9A83B7896083BF83B78062B0
:1000D00083BF83B7816083BF8FEF90E09BBD8ABDF4
:1000E00084B3876084BB85B3876085BB85B5886032
:1000F00085BD85B5816085BD87EC83BD89B7806886
:1001000089BF78941092620010926300109261008F
:100110005F9BFECF8CB15D9BFECF8CB9823719F40B
:1001200080936200F5CF873619F480936300F0CF97
:0E013000823671F780936100EBCFF894FFCF19
:00000001FF
