:1000000012C02CC02BC036C029C028C027C026C0B3
:1000100025C024C023C022C021C020C01FC01EC0D4
:100020001DC01CC01BC011241FBECFE5D4E0DEBF25
:10003000CDBF10E0A0E6B0E0E0EFF1E002C0059037
:100040000D92AC36B107D9F710E0ACE6B0E001C0D4
:100050001D92A638B107E1F789D0C8C0D1CF90BDB5
:1000600089B988E18AB986E880BD08955D9BFECF95
:100070008CB908951F920F920FB60F9211248F938F
:100080009F9390916E0080918400981710F0A89A29
:1000900001C0A89880918500981710F0A99A01C016
:1000A000A99880918300981710F0AA9A01C0AA9885
:1000B0009F5F90936E009F918F910F900FBE0F9056
:1000C0001F9018955F9BFECF8CB1803288F0E09135
:1000D0006C00F0916D008CB1DF01A159BF4F8C9382
:1000E0003196F0936D00E0936C00E159FF4F108260
:1000F0008CB18D3099F58FE690E060E670E042E0DB
:1001000050E066D0009729F480917100805380936D
:1001100084008FE690E063E670E042E050E058D063
:10012000009729F4809171008053809385008FE6B9
:1001300090E066E670E042E050E04AD0009729F493
:100140008091710080538093830080916F0090E0D4
:100150008956904019F488EC8093840010926D00C9
:1001600010926C0010926F008CB1089510BC83E364
:1001700089B988E18AB986E880BDBA9A83B789606F
:1001800083BF83B7806283BF83B7816083BF8FEFF4
:1001900090E09BBD8ABD84B3876084BB85B38760D4
:1001A00085BB85B5886085BD85B5816085BD87ECDB
:1001B00083BD89B7806889BF7894109284001092BB
:1001C0008500109283007EDF5D9BFECF8CB9FBCF54
:1001D000FB01DC014150504030F08D9101908019BD
:1001E00019F40020B9F7881B990B0895F894FFCFF4
:0C01F000722000672000622000720000F6
:00000001FF
