:100000000C942A000C9434000C9434000C943400AA
:100010000C9434000C9434000C9434000C94340090
:100020000C9434000C9434000C9434000C94340080
:100030000C9434000C9434000C9434000C94340070
:100040000C9434000C9434000C9434000C94340060
:100050000C94340011241FBECFE5D8E0DEBFCDBF25
:100060000E9445000C946F000C94000090BD89B96B
:1000700088E18AB986E880BD08955D9BFECF8CB982
:1000800008955F9BFECF8CB1089510BC83E389B9BE
:1000900088E18AB986E880BDA09AA19AA29AA89A16
:1000A000A99AAA9A5F9BFECF8CB15D9BFECF8CB9BB
:1000B000813311F4A898F6CF843311F4A89AF2CFC3
:1000C000823311F4A998EECF853311F4A99AEACFBF
:1000D000833311F4AA98E6CF863319F3E3CFF8946B
:0200E000FFCF50
:00000001FF
